{
  "contractName": "TokenTimelock",
  "abi": [
    {
      "inputs": [
        {
          "internalType": "contract IBEP20",
          "name": "token_",
          "type": "address"
        },
        {
          "internalType": "address",
          "name": "beneficiary_",
          "type": "address"
        },
        {
          "internalType": "uint256",
          "name": "releaseTime_",
          "type": "uint256"
        }
      ],
      "stateMutability": "nonpayable",
      "type": "constructor"
    },
    {
      "inputs": [],
      "name": "_beneficiary",
      "outputs": [
        {
          "internalType": "address",
          "name": "",
          "type": "address"
        }
      ],
      "stateMutability": "view",
      "type": "function",
      "constant": true
    },
    {
      "inputs": [],
      "name": "_releaseTime",
      "outputs": [
        {
          "internalType": "uint256",
          "name": "",
          "type": "uint256"
        }
      ],
      "stateMutability": "view",
      "type": "function",
      "constant": true
    },
    {
      "inputs": [],
      "name": "token",
      "outputs": [
        {
          "internalType": "contract IBEP20",
          "name": "",
          "type": "address"
        }
      ],
      "stateMutability": "view",
      "type": "function",
      "constant": true
    },
    {
      "inputs": [],
      "name": "beneficiary",
      "outputs": [
        {
          "internalType": "address",
          "name": "",
          "type": "address"
        }
      ],
      "stateMutability": "view",
      "type": "function",
      "constant": true
    },
    {
      "inputs": [],
      "name": "releaseTime",
      "outputs": [
        {
          "internalType": "uint256",
          "name": "",
          "type": "uint256"
        }
      ],
      "stateMutability": "view",
      "type": "function",
      "constant": true
    },
    {
      "inputs": [],
      "name": "release",
      "outputs": [],
      "stateMutability": "nonpayable",
      "type": "function"
    }
  ],
  "bytecode": "0x60806040523480156200001157600080fd5b5060405162000eea38038062000eea8339818101604052810190620000379190620001f7565b4281116200007c576040517f08c379a00000000000000000000000000000000000000000000000000000000081526004016200007390620002da565b60405180910390fd5b826000806101000a81548173ffffffffffffffffffffffffffffffffffffffff021916908373ffffffffffffffffffffffffffffffffffffffff16021790555081600160006101000a81548173ffffffffffffffffffffffffffffffffffffffff021916908373ffffffffffffffffffffffffffffffffffffffff16021790555080600281905550505050620002fc565b600080fd5b600073ffffffffffffffffffffffffffffffffffffffff82169050919050565b60006200013f8262000112565b9050919050565b6000620001538262000132565b9050919050565b620001658162000146565b81146200017157600080fd5b50565b60008151905062000185816200015a565b92915050565b620001968162000132565b8114620001a257600080fd5b50565b600081519050620001b6816200018b565b92915050565b6000819050919050565b620001d181620001bc565b8114620001dd57600080fd5b50565b600081519050620001f181620001c6565b92915050565b6000806000606084860312156200021357620002126200010d565b5b6000620002238682870162000174565b93505060206200023686828701620001a5565b92505060406200024986828701620001e0565b9150509250925092565b600082825260208201905092915050565b7f546f6b656e54696d656c6f636b3a2072656c656173652074696d65206973206260008201527f65666f72652063757272656e742074696d650000000000000000000000000000602082015250565b6000620002c260328362000253565b9150620002cf8262000264565b604082019050919050565b60006020820190508181036000830152620002f581620002b3565b9050919050565b610bde806200030c6000396000f3fe608060405234801561001057600080fd5b50600436106100625760003560e01c80632208ee1d1461006757806338af3eed14610085578063828cedb7146100a357806386d1a69f146100c1578063b91d4001146100cb578063fc0c546a146100e9575b600080fd5b61006f610107565b60405161007c91906105dd565b60405180910390f35b61008d61010d565b60405161009a9190610639565b60405180910390f35b6100ab610137565b6040516100b89190610639565b60405180910390f35b6100c961015d565b005b6100d36102ab565b6040516100e091906105dd565b60405180910390f35b6100f16102b5565b6040516100fe91906106b3565b60405180910390f35b60025481565b6000600160009054906101000a900473ffffffffffffffffffffffffffffffffffffffff16905090565b600160009054906101000a900473ffffffffffffffffffffffffffffffffffffffff1681565b6101656102ab565b4210156101a7576040517f08c379a000000000000000000000000000000000000000000000000000000000815260040161019e90610751565b60405180910390fd5b60006101b16102b5565b73ffffffffffffffffffffffffffffffffffffffff166370a08231306040518263ffffffff1660e01b81526004016101e99190610639565b602060405180830381865afa158015610206573d6000803e3d6000fd5b505050506040513d601f19601f8201168201806040525081019061022a91906107a2565b90506000811161026f576040517f08c379a000000000000000000000000000000000000000000000000000000000815260040161026690610841565b60405180910390fd5b6102a861027a61010d565b826102836102b5565b73ffffffffffffffffffffffffffffffffffffffff166102de9092919063ffffffff16565b50565b6000600254905090565b60008060009054906101000a900473ffffffffffffffffffffffffffffffffffffffff16905090565b61035f8363a9059cbb60e01b84846040516024016102fd929190610861565b604051602081830303815290604052907bffffffffffffffffffffffffffffffffffffffffffffffffffffffff19166020820180517bffffffffffffffffffffffffffffffffffffffffffffffffffffffff8381831617835250505050610364565b505050565b60006103a982604051806060016040528060218152602001610b88602191398573ffffffffffffffffffffffffffffffffffffffff1661040e9092919063ffffffff16565b905060008151111561040957808060200190518101906103c991906108c2565b610408576040517f08c379a00000000000000000000000000000000000000000000000000000000081526004016103ff90610961565b60405180910390fd5b5b505050565b606061041d8484600085610426565b90509392505050565b60608247101561046b576040517f08c379a0000000000000000000000000000000000000000000000000000000008152600401610462906109f3565b60405180910390fd5b6104748561053a565b6104b3576040517f08c379a00000000000000000000000000000000000000000000000000000000081526004016104aa90610a5f565b60405180910390fd5b6000808673ffffffffffffffffffffffffffffffffffffffff1685876040516104dc9190610af9565b60006040518083038185875af1925050503d8060008114610519576040519150601f19603f3d011682016040523d82523d6000602084013e61051e565b606091505b509150915061052e82828661055d565b92505050949350505050565b6000808273ffffffffffffffffffffffffffffffffffffffff163b119050919050565b6060831561056d578290506105bd565b6000835111156105805782518084602001fd5b816040517f08c379a00000000000000000000000000000000000000000000000000000000081526004016105b49190610b65565b60405180910390fd5b9392505050565b6000819050919050565b6105d7816105c4565b82525050565b60006020820190506105f260008301846105ce565b92915050565b600073ffffffffffffffffffffffffffffffffffffffff82169050919050565b6000610623826105f8565b9050919050565b61063381610618565b82525050565b600060208201905061064e600083018461062a565b92915050565b6000819050919050565b600061067961067461066f846105f8565b610654565b6105f8565b9050919050565b600061068b8261065e565b9050919050565b600061069d82610680565b9050919050565b6106ad81610692565b82525050565b60006020820190506106c860008301846106a4565b92915050565b600082825260208201905092915050565b7f546f6b656e54696d656c6f636b3a2063757272656e742074696d65206973206260008201527f65666f72652072656c656173652074696d650000000000000000000000000000602082015250565b600061073b6032836106ce565b9150610746826106df565b604082019050919050565b6000602082019050818103600083015261076a8161072e565b9050919050565b600080fd5b61077f816105c4565b811461078a57600080fd5b50565b60008151905061079c81610776565b92915050565b6000602082840312156107b8576107b7610771565b5b60006107c68482850161078d565b91505092915050565b7f546f6b656e54696d656c6f636b3a206e6f20746f6b656e7320746f2072656c6560008201527f6173650000000000000000000000000000000000000000000000000000000000602082015250565b600061082b6023836106ce565b9150610836826107cf565b604082019050919050565b6000602082019050818103600083015261085a8161081e565b9050919050565b6000604082019050610876600083018561062a565b61088360208301846105ce565b9392505050565b60008115159050919050565b61089f8161088a565b81146108aa57600080fd5b50565b6000815190506108bc81610896565b92915050565b6000602082840312156108d8576108d7610771565b5b60006108e6848285016108ad565b91505092915050565b7f536166654942455032303a20494245503230206f7065726174696f6e2064696460008201527f206e6f7420737563636565640000000000000000000000000000000000000000602082015250565b600061094b602c836106ce565b9150610956826108ef565b604082019050919050565b6000602082019050818103600083015261097a8161093e565b9050919050565b7f416464726573733a20696e73756666696369656e742062616c616e636520666f60008201527f722063616c6c0000000000000000000000000000000000000000000000000000602082015250565b60006109dd6026836106ce565b91506109e882610981565b604082019050919050565b60006020820190508181036000830152610a0c816109d0565b9050919050565b7f416464726573733a2063616c6c20746f206e6f6e2d636f6e7472616374000000600082015250565b6000610a49601d836106ce565b9150610a5482610a13565b602082019050919050565b60006020820190508181036000830152610a7881610a3c565b9050919050565b600081519050919050565b600081905092915050565b60005b83811015610ab3578082015181840152602081019050610a98565b83811115610ac2576000848401525b50505050565b6000610ad382610a7f565b610add8185610a8a565b9350610aed818560208601610a95565b80840191505092915050565b6000610b058284610ac8565b915081905092915050565b600081519050919050565b6000601f19601f8301169050919050565b6000610b3782610b10565b610b4181856106ce565b9350610b51818560208601610a95565b610b5a81610b1b565b840191505092915050565b60006020820190508181036000830152610b7f8184610b2c565b90509291505056fe536166654942455032303a206c6f772d6c6576656c2063616c6c206661696c6564a264697066735822122095796e157a53486197b353d58a903bca2bbfdea7694238bb64ef613a8d0c2f3564736f6c634300080a0033",
  "immutableReferences": {},
  "source": "// SPDX-License-Identifier: MIT\n// OpenZeppelin Contracts (last updated v4.5.0)\n\npragma solidity ^0.8.0;\n\nimport \"./utils/SafeBEP20.sol\";\n\n/**\n * @dev A token holder contract that will allow a beneficiary to extract the\n * tokens after a given release time.\n *\n * Useful for simple vesting schedules like \"advisors get all of their tokens\n * after 1 year\".\n */\ncontract TokenTimelock {\n    using SafeBEP20 for IBEP20;\n\n    // Basic token contract being held\n    IBEP20 _token;\n\n    // beneficiary of tokens after they are released\n    address public _beneficiary;\n\n    // timestamp when token release is enabled\n    uint256 public _releaseTime;\n\n    /**\n     * @dev Deploys a timelock instance that is able to hold the token specified, and will only release it to\n     * `beneficiary_` when {release} is invoked after `releaseTime_`. The release time is specified as a Unix timestamp\n     * (in seconds).\n     */\n    constructor(\n        IBEP20 token_,\n        address beneficiary_,\n        uint256 releaseTime_\n    ) {\n        require(\n            releaseTime_ > block.timestamp,\n            \"TokenTimelock: release time is before current time\"\n        );\n        _token = IBEP20(token_);\n        _beneficiary = beneficiary_;\n        _releaseTime = releaseTime_;\n    }\n\n    /**\n     * @dev Returns the token being held.\n     */\n    function token() public view virtual returns (IBEP20) {\n        return _token;\n    }\n\n    /**\n     * @dev Returns the beneficiary that will receive the tokens.\n     */\n    function beneficiary() public view virtual returns (address) {\n        return _beneficiary;\n    }\n\n    /**\n     * @dev Returns the time when the tokens are released in seconds since Unix epoch (i.e. Unix timestamp).\n     */\n    function releaseTime() public view virtual returns (uint256) {\n        return _releaseTime;\n    }\n\n    /**\n     * @dev Transfers tokens held by the timelock to the beneficiary. Will only succeed if invoked after the release\n     * time.\n     */\n    function release() public virtual {\n        require(\n            block.timestamp >= releaseTime(),\n            \"TokenTimelock: current time is before release time\"\n        );\n\n        uint256 amount = token().balanceOf(address(this));\n        require(amount > 0, \"TokenTimelock: no tokens to release\");\n\n        token().safeTransfer(beneficiary(), amount);\n    }\n}\n",
  "sourcePath": "/home/dhruv/Desktop/projects/dApps/IncognitoDev_DAO-main/contracts/TokenTimelock.sol",
  "compiler": {
    "name": "solc",
    "version": "0.8.10+commit.fc410830.Emscripten.clang"
  },
  "schemaVersion": "3.4.5",
  "updatedAt": "2022-03-07T17:28:19.153Z",
  "networkType": "ethereum",
  "devdoc": {
    "details": "A token holder contract that will allow a beneficiary to extract the tokens after a given release time. Useful for simple vesting schedules like \"advisors get all of their tokens after 1 year\".",
    "kind": "dev",
    "methods": {
      "beneficiary()": {
        "details": "Returns the beneficiary that will receive the tokens."
      },
      "constructor": {
        "details": "Deploys a timelock instance that is able to hold the token specified, and will only release it to `beneficiary_` when {release} is invoked after `releaseTime_`. The release time is specified as a Unix timestamp (in seconds)."
      },
      "release()": {
        "details": "Transfers tokens held by the timelock to the beneficiary. Will only succeed if invoked after the release time."
      },
      "releaseTime()": {
        "details": "Returns the time when the tokens are released in seconds since Unix epoch (i.e. Unix timestamp)."
      },
      "token()": {
        "details": "Returns the token being held."
      }
    },
    "version": 1
  },
  "userdoc": {
    "kind": "user",
    "methods": {},
    "version": 1
  }
}